:100000000C9434000C9451000C9451000C94510049
:100010000C9451000C9451000C9451000C9451001C
:100020000C9451000C9451000C9451000C9451000C
:100030000C9451000C9451000C9451000C945100FC
:100040000C9451000C9451000C9451000C945100EC
:100050000C9451000C9451000C9451000C945100DC
:100060000C9451000C94510011241FBECFEFD8E026
:10007000DEBFCDBF11E0A0E0B1E0E8E6F9E002C0EC
:1000800005900D92AA30B107D9F711E0AAE0B1E0CE
:1000900001C01D92A631B107E1F70E94A3010C94A3
:1000A000B2040C9400008F929F92AF92BF92CF92B5
:1000B000DF92EF92FF920F931F93CF93C82F8091FF
:1000C000010190910201A0910301B09104016C0122
:1000D0007D01FF0CCC08DC2C7601282F392F4A2F0C
:1000E0005B2F6C2D7C2D8C2D9C2D0F2EF7EAAF2EC7
:1000F000F02D0F2EFCEEBF2EF02DCC24DD24EE24AF
:10010000FF2400E010E00E941B0300E10E94EE03C8
:10011000822E932EA42EB52E6091000170E080E017
:1001200090E02CEA39E040E050E00E945C04DC0101
:10013000CB016C017D01C80CD91CEA1CFB1C6C2F87
:1001400070E080E090E00E945C04DC01CB01C80E0E
:10015000D91EEA1EFB1EC0920101D0920201E0925C
:100160000301F0920401C09300016C2D7D2D8E2DB2
:100170009F2DCF911F910F91FF90EF90DF90CF9027
:10018000BF90AF909F908F9008954F925F926F9223
:100190007F928F929F92AF92BF92CF92DF92EF9217
:1001A000FF920F931F93CF93DF93CDB7DEB72897BE
:1001B0000FB6F894DEBF0FBECDBF2B013C0180917E
:1001C000120190911301A0911401B09115016C01DD
:1001D0007D01FF0CCC08DC2C7601282F392F4A2F0B
:1001E0005B2F6C2D7C2D8C2D9C2DAA24AA940F2E78
:1001F000FEEFBF2EF02DCC24DD24EE24FF2400E002
:1002000010E00E941B0300E10E94EE0329833A8361
:100210004B835C836D837E838F83988780910501F8
:1002200090910601A0910701B09108016C017D0138
:10023000FF0CCC08DC2C7601282F392F4A2F5B2F9E
:100240006C2D7C2D8C2D9C2D0F2EF9EAAF2EF02DD0
:100250000F2EF2E2BF2EF02D0F2EF3E0CF2EF02D59
:10026000DD24EE24FF2400E00E941B0300E10E9435
:10027000EE03822E932EA42EB52E89819A81AB8116
:10028000BC8188199909AA09BB0989839A83AB8320
:10029000BC8373016201FF0CCC08DC2C7601242D99
:1002A000352D462D572D6C2D7C2D8C2D9C2D0F2EF4
:1002B000F9EAAF2EF02D0F2EF2E2BF2EF02D0F2E09
:1002C000F3E0CF2EF02DDD24EE24FF2400E00E9489
:1002D0001B0300E10E94EE03822E932EA42EB52E66
:1002E00089819A81AB81BC81880E991EAA1EBB1E92
:1002F0008092120190921301A0921401B092150104
:100300004092050150920601609207017092080127
:10031000682D792D8A2D9B2D28960FB6F894DEBF77
:100320000FBECDBFDF91CF911F910F91FF90EF9046
:10033000DF90CF90BF90AF909F908F907F906F9005
:100340005F904F9008953C98449A579A5F98109206
:100350006400109280001092820089ED9FEF9093CC
:1003600085008093840010926F00569A16BC83EA31
:1003700084BD10926E0080E887BD81E088BD85BD98
:1003800081E680937C0083E880937A008FE08093FD
:100390007E008CE090E09093C5008093C4001092A2
:1003A000C00088E18093C10086E08093C20085EAA6
:1003B0008093C600E0ECF0E0808186FFFDCF8AE507
:1003C0008093C600E0ECF0E0808186FFFDCF85EAF7
:1003D0008093C600E0ECF0E0808186FFFDCF5F9A5D
:1003E0008FEF99E6A8E181509040A040E1F700C06E
:1003F00000005F9884E08093810020E00F2EF4E8F5
:10040000EF2EFF24F02D0F2EF9EDCF2EFFEFDF2E74
:10041000F02DEAE7F0E00F2EF9E7AF2EBB24F02D28
:10042000C0ECD0E006EC10E099249A948824B09BAC
:100430002BC071C0826080930A0190930B01A0933E
:100440000C01B0930D01403991E0590790E0690724
:1004500090E07907C9F410920E0110920F011092EA
:1004600010011092110180910A0190910B01A0914D
:100470000C01B0910D01816080930A0190930B01F2
:10048000A0930C01B0930D0180910A0180FF03C07D
:100490008BB180588BB980910A0183FF1CC0808189
:1004A00080648083808184FFFDCF80818061808330
:1004B000D5017C9080910A0190910B01A0910C01D3
:1004C000B0910D01806180930A0190930B01A0937C
:1004D0000C01B0930D0180910A0184FF07C02F3FEA
:1004E00029F4888186FFFDCFD8017C9288818823FA
:1004F0004CF4D8018C91803329F42F3F11F4282D2E
:1005000001C0292D10920A0110920B0110920C01CA
:1005100010920D018CCFB09AD7011196DC92CE9239
:1005200080910E0190910F01A0911001B0911101E5
:10053000AC01BD014F5F5F4F6F4F7F4F40930E0186
:1005400050930F01609310017093110180910A0183
:1005500090910B01A0910C01B0910D0188608093E6
:100560000A0190930B01A0930C01B0930D01483C3C
:1005700051056105710509F45DCF493C51056105DF
:10058000710528F5403551056105710509F452CF13
:10059000413551056105710568F441155105610545
:1005A000710509F447CF483251056105710509F01D
:1005B0004ACF40CF483751056105710509F43ACF5C
:1005C000403A51056105710509F03DCF33CF403404
:1005D00031E0530730E0630730E0730709F42ACFB6
:1005E000413431E0530730E0630730E0730780F4B3
:1005F000403F51056105710509F41CCF483131E0D8
:10060000530730E0630730E0730709F01CCF12CFC7
:10061000483631E0530730E0630730E0730709F4F0
:1006200009CF403931E0530730E0630730E073070A
:1006300009F009CFFFCEA0E3B0E0E1E2F3E00C94D3
:100640007D04298F3A8F4B8F5C8F6D8F7E8F8F8FBC
:1006500098A3A98ABA8ACB8ADC8AED8AFE8A0F8B94
:10066000188F098D1A8D2B8D3C8D09A31AA32BA3EE
:100670003CA3680179018FEF9FEFA0E0B0E0C822B2
:10068000D922EA22FB2289012227332709A71AA7A8
:100690002BA73CA709891A892B893C890DA31EA386
:1006A0002FA338A74801590188229922AA22BB22E8
:1006B000290166247724C501B401A70196010E948F
:1006C0005C046DA77EA78FA798ABC301B2010E94FF
:1006D0005C046B017C01C501B40129A53AA54BA5B9
:1006E0005CA50E945C044B015C01C301B2010E9445
:1006F0005C04AB01BC01C80CD91CEA1CFB1C0DA599
:100700001EA52FA538A9C901AA27BB27C80ED91E27
:10071000EA1EFB1EC814D904EA04FB0420F440506E
:1007200050406F4F7F4FC701AA27BB27840F951FEB
:10073000A61FB71F8D839E83AF83B8877601DD2404
:10074000CC244DA55EA56FA578A960707070C40E0D
:10075000D51EE61EF71EC982DA82EB82FC821C2DB2
:100760000A818B804C808D878E818E878F818F87C9
:100770008885888B2D893E894F89588D69A17AA1FA
:100780008BA19CA10E945C046B017C012D8D3E8D90
:100790004F8D58A16DA17EA18FA198A50E945C04E8
:1007A000DC01CB01C80ED91EEA1EFB1E8D859E857D
:1007B000AF85B8898C0D9D1DAE1DBF1D8D879E8791
:1007C000AF87B88B682F7E85212F302F482D542D71
:1007D0008F859889E096E0E10C9499040F93CF936C
:1007E000DF93CDB7DEB760970FB6F894DEBF0FBECC
:1007F000CDBF002309F456C029873A874B875C8711
:100800006D877E878F87988B20E2201B8D859E8544
:10081000AF85B889AC01BD011216B4F0770F440B57
:10082000542FBA014D835E836F837887332727FD6A
:100830003095309521953F4F04C0B595A795979574
:1008400087952A95D2F722C0002E04C0759567952A
:10085000579547950A94D2F74D835E836F837887C7
:1008600004C0880F991FAA1FBB1F2A95D2F749857C
:100870005A856B857C8504C0769567955795479515
:100880000A95D2F7842B952BA62BB72B89839A83B5
:10089000AB83BC8329813A814B815C816D817E81F0
:1008A0008F81988560960FB6F894DEBF0FBECDBFDE
:1008B000DF91CF910F910895629FD001739FF00156
:1008C000829FE00DF11D649FE00DF11D929FF00DE0
:1008D000839FF00D749FF00D659FF00D9927729F17
:1008E000B00DE11DF91F639FB00DE11DF91FBD01A2
:1008F000CF01112408952F923F924F925F926F92F1
:100900007F928F929F92AF92BF92CF92DF92EF929F
:10091000FF920F931F93CF93DF93CDB7DEB7CA1B20
:10092000DB0B0FB6F894DEBF0FBECDBF09942A884B
:10093000398848885F846E847D848C849B84AA84F3
:10094000B984C884DF80EE80FD800C811B81AA8180
:10095000B981CE0FD11D0FB6F894DEBF0FBECDBF4B
:08096000ED010895F894FFCFAA
:0A096800580000580000005800007D
:00000001FF
